{
  "_format": "hh-sol-artifact-1",
  "contractName": "RegisterBook",
  "sourceName": "contracts/RegisterBook.sol",
  "abi": [
    {
      "inputs": [
        {
          "internalType": "uint256",
          "name": "_y",
          "type": "uint256"
        },
        {
          "internalType": "string",
          "name": "_titleget",
          "type": "string"
        },
        {
          "internalType": "string",
          "name": "_authorget",
          "type": "string"
        }
      ],
      "name": "getBook",
      "outputs": [
        {
          "internalType": "bool",
          "name": "",
          "type": "bool"
        }
      ],
      "stateMutability": "view",
      "type": "function"
    },
    {
      "inputs": [
        {
          "internalType": "uint256",
          "name": "",
          "type": "uint256"
        },
        {
          "internalType": "string",
          "name": "",
          "type": "string"
        },
        {
          "internalType": "string",
          "name": "",
          "type": "string"
        }
      ],
      "name": "registermapping",
      "outputs": [
        {
          "internalType": "bool",
          "name": "",
          "type": "bool"
        }
      ],
      "stateMutability": "view",
      "type": "function"
    },
    {
      "inputs": [
        {
          "internalType": "uint256",
          "name": "_x",
          "type": "uint256"
        },
        {
          "internalType": "string",
          "name": "_title",
          "type": "string"
        },
        {
          "internalType": "string",
          "name": "_author",
          "type": "string"
        },
        {
          "internalType": "bool",
          "name": "_availablity",
          "type": "bool"
        }
      ],
      "name": "setBook",
      "outputs": [],
      "stateMutability": "nonpayable",
      "type": "function"
    }
  ],
  "bytecode": "0x608060405234801561001057600080fd5b506105cf806100206000396000f3fe608060405234801561001057600080fd5b50600436106100415760003560e01c80632350d5a1146100465780639155b61d14610062578063d3f3f3e514610092575b600080fd5b610060600480360381019061005b91906103bd565b6100c2565b005b61007c6004803603810190610077919061045c565b61012a565b60405161008991906104f6565b60405180910390f35b6100ac60048036038101906100a7919061045c565b610192565b6040516100b991906104f6565b60405180910390f35b80600080868152602001908152602001600020846040516100e39190610582565b9081526020016040518091039020836040516100ff9190610582565b908152602001604051809103902060006101000a81548160ff02191690831515021790555050505050565b60006020528260005260406000208280516020810182018051848252602083016020850120818352809550505050505081805160208101820180518482526020830160208501208183528095505050505050600092509250509054906101000a900460ff1681565b6000806000858152602001908152602001600020836040516101b49190610582565b9081526020016040518091039020826040516101d09190610582565b908152602001604051809103902060009054906101000a900460ff1690509392505050565b6000604051905090565b600080fd5b600080fd5b6000819050919050565b61021c81610209565b811461022757600080fd5b50565b60008135905061023981610213565b92915050565b600080fd5b600080fd5b6000601f19601f8301169050919050565b7f4e487b7100000000000000000000000000000000000000000000000000000000600052604160045260246000fd5b61029282610249565b810181811067ffffffffffffffff821117156102b1576102b061025a565b5b80604052505050565b60006102c46101f5565b90506102d08282610289565b919050565b600067ffffffffffffffff8211156102f0576102ef61025a565b5b6102f982610249565b9050602081019050919050565b82818337600083830152505050565b6000610328610323846102d5565b6102ba565b90508281526020810184848401111561034457610343610244565b5b61034f848285610306565b509392505050565b600082601f83011261036c5761036b61023f565b5b813561037c848260208601610315565b91505092915050565b60008115159050919050565b61039a81610385565b81146103a557600080fd5b50565b6000813590506103b781610391565b92915050565b600080600080608085870312156103d7576103d66101ff565b5b60006103e58782880161022a565b945050602085013567ffffffffffffffff81111561040657610405610204565b5b61041287828801610357565b935050604085013567ffffffffffffffff81111561043357610432610204565b5b61043f87828801610357565b9250506060610450878288016103a8565b91505092959194509250565b600080600060608486031215610475576104746101ff565b5b60006104838682870161022a565b935050602084013567ffffffffffffffff8111156104a4576104a3610204565b5b6104b086828701610357565b925050604084013567ffffffffffffffff8111156104d1576104d0610204565b5b6104dd86828701610357565b9150509250925092565b6104f081610385565b82525050565b600060208201905061050b60008301846104e7565b92915050565b600081519050919050565b600081905092915050565b60005b8381101561054557808201518184015260208101905061052a565b60008484015250505050565b600061055c82610511565b610566818561051c565b9350610576818560208601610527565b80840191505092915050565b600061058e8284610551565b91508190509291505056fea2646970667358221220ad294dbf9dc3beaac5287623fd7d71498815882f475b15cf08ec2c0d9a10b0db64736f6c63430008130033",
  "linkReferences": {},
  "deployedLinkReferences": {}
}